:020000040000FA
:100000000C945E000C9486000C9486000C94860080
:100010000C9486000C9486000C9486000C94860048
:100020000C9486000C9486000C9486000C94860038
:100030000C9486000C9486000C9486000C94860028
:100040000C946F060C9486000C943D060C941706D5
:100050000C9486000C9486000C9486000C94860008
:100060000C9486000C9486000000000024002700F9
:100070002A0000000008000201000003040700003D
:10008000000000000000010204081020408001026E
:1000900004081020010204081020000000002500C0
:1000A00028002B00040404040404040402020202D5
:1000B0000202030303030303B906840A11241FBECB
:1000C000CFEFD8E0DEBFCDBF22E0A4EEB1E001C0AB
:1000D0001D92AC3AB207E1F711E0A0E0B1E0ECE329
:1000E000FBE102C005900D92A43EB107D9F710E0E4
:1000F000CDE5D0E004C02197FE010E94670BCC350E
:10010000D107C9F70E945A070C94910D0C94000076
:1001100090E0FC01EE58FF4F2491FC01EA57FF4F9D
:100120003491FC01EC55FF4FE491EE23B9F022230A
:1001300039F02330F1F098F4213009F1223019F12F
:10014000F0E0EE0FFF1FE656FF4FA591B4918FB779
:10015000F894EC9130953E233C938FBF089527305F
:10016000A9F02830C9F0243059F7809180008F7DA4
:1001700003C0809180008F7780938000E1CF84B5A9
:100180008F7784BDDDCF84B58F7DFBCF8091B000AC
:100190008F778093B000D4CF8091B0008F7DF9CF5E
:1001A0008F929F92AF92BF92CF92DF92EF92FF9287
:1001B000CF93209192023091930282179307E8F532
:1001C0004B01AA24BB24C82DC52ED62EE72EFF2412
:1001D000BC2DA42F20919802222361F0829E400121
:1001E0001124C92D2C9D60011124BD2D249FF001E7
:1001F0001124AF2FE0919E02E0909902F0909A02B4
:1002000030919B02E31323C09C01220F331F820F06
:10021000931F8E0D9F1DE0919B02E80FF92FF11D9A
:10022000C083E0919C02E80FF92FF11DB08320916B
:100230009D02820F911DFC01A083CF91FF90EF9052
:10024000DF90CF90BF90AF909F908F900895880FD0
:10025000991F880F991F8E0D9F1D472F55276627C1
:100260007727222349F030E0249F7001259FF00C6E
:10027000349FF00C11244F2DE80FF92FF11D40830E
:10028000CACFAF92BF92CF92DF92EF92FF920F93BD
:100290001F93CF93DF936C017B018B01040F151F1C
:1002A000EB015E01AE18BF08C017D10759F0699184
:1002B000D601ED91FC910190F081E02DC6010995E8
:1002C000892B79F7C501DF91CF911F910F91FF9095
:1002D000EF90DF90CF90BF90AF900895FC01538DC9
:1002E000448D252F30E0842F90E0821B930B541710
:1002F00010F0CF96089501970895FC01918D828D9D
:10030000981761F0A28DAE0FBF2FB11D5D968C9135
:10031000928D9F5F9F73928F90E008958FEF9FEF74
:1003200008952FB7F8948091EF019091F001A0917A
:10033000F101B091F2012FBF8093FB019093FC017A
:10034000A093FD01B093FE0183EF91E00E947D0137
:1003500097FF26C02FB7F8948091EF019091F0019C
:10036000A091F101B091F2012FBF4091FB0150919A
:10037000FC016091FD017091FE01841B950BA60BA1
:10038000B70B4091F7015091F8016091F90170911C
:10039000FA0184179507A607B707B0F28FEF9FEF12
:1003A0000895FC01918D828D981731F0828DE80FB0
:1003B000F11D858D90E008958FEF9FEF0895FC016A
:1003C000918D228D892F90E0805C9F4F821B910937
:1003D0008F739927089583EF91E00E94DF0121E058
:1003E000892B09F420E0822F089580E090E0892B8A
:1003F00029F00E94EB0181110C9400000895FC018A
:10040000A48DA80FB92FB11DA35ABF4F2C91848D75
:1004100090E001968F739927848FA689B7892C93D2
:10042000A089B1898C91837080648C93938D848D25
:10043000981306C00288F389E02D80818F7D808328
:100440000895EF92FF920F931F93CF93DF93EC01E8
:1004500081E0888F9B8D8C8D98131AC0E889F9896B
:10046000808185FF15C09FB7F894EE89FF8960836E
:10047000E889F98980818370806480839FBF81E0EF
:1004800090E0DF91CF911F910F91FF90EF90089531
:10049000F62E0B8D10E00F5F1F4F0F731127E02E0C
:1004A0008C8D8E110CC00FB607FCFACFE889F98944
:1004B000808185FFF5CFCE010E94FF01F1CFEB8D4A
:1004C000EC0FFD2FF11DE35AFF4FF0829FB7F89418
:1004D0000B8FEA89FB8980818062CFCFCF93DF9336
:1004E000EC01888D8823B9F0AA89BB89E889F9894C
:1004F0008C9185FD03C0808186FD0DC00FB607FC81
:10050000F7CF8C9185FFF2CF808185FFEDCFCE01B3
:100510000E94FF01E9CFDF91CF910895CF93DF9340
:1005200090E0FC01EA57FF4F24918C559F4FFC014E
:1005300084918823D1F090E0880F991FFC01E8593D
:10054000FF4FA591B491FC01E656FF4FC591D491A0
:1005500061110EC09FB7F8948C91E22FE0958E2325
:100560008C932881E223E8839FBFDF91CF91089588
:100570008FB7F894EC91E22BEC938FBFF6CF3FB797
:10058000F8948091E5019091E601A091E701B09186
:10059000E80126B5A89B05C02F3F19F00196A11DC3
:1005A000B11D3FBFBA2FA92F982F8827BC01CD01BD
:1005B000620F711D811D911D42E0660F771F881F1C
:1005C000991F4A95D1F70895CF92DF92EF92FF924B
:1005D0000F931F93CF93DF93CDB7DEB729970FB655
:1005E000F894DEBF0FBECDBF8091990290919A0220
:1005F000892B09F480C0C0909F02D090A002E090A7
:10060000A102F090A2020E94BF026C157D058E052A
:100610009F0550F40E94BF0260939F027093A00256
:100620008093A1029093A2020E94BF0200919F02B8
:100630001091A0022091A1023091A202601B710BC7
:10064000820B930B6C32714081059105A0F2F894F6
:1006500080919402909195029A838983E091990206
:10066000F0919A02DF011196808189879091900222
:10067000E091A302F091A4028091A502992309F4CC
:1006800049C09081982B98879081809589238F838A
:100690008F818C8388E08B8358856F8149853B816E
:1006A0002C8189819A81508347FD252F3A9520839B
:1006B000262F39F0441F00C000006083000000C0F6
:1006C000F2CF38E04D9160830000019761F7F0931D
:1006D000A402E093A30249873B832C839A838983F6
:1006E00078940E94BF0260939F027093A00280934F
:1006F000A1029093A20229960FB6F894DEBF0FBE16
:10070000CDBFDF91CF911F910F91FF90EF90DF90C0
:10071000CF9008959081982B988790818095892318
:100720008F838F818E8388E08D8358856F81498583
:100730003D812E8189819A81508347FD252F00C0FC
:1007400000C0208300C000C000C000C000C06083A3
:100750000000262F3A9541F0441F000000C000C061
:1007600000C000C000C0E8CF38E04D9100C06083F9
:1007700000C0019709F7F093A402E093A302498710
:100780003D832E83ABCF8F929F92AF92BF92CF9239
:10079000DF92EF92FF926B017C010E94BF024B013E
:1007A0005C01C114D104E104F104B9F00E94BF025C
:1007B000681979098A099B09683E7340810591058A
:1007C00080F321E0C21AD108E108F10888EE880E12
:1007D00083E0981EA11CB11CE4CFFF90EF90DF9046
:1007E000CF90BF90AF909F908F900895853588F4FB
:1007F000982F990F990F282F291B2150682F660FCA
:10080000680F70E090E080E0CB0177276627722BBD
:1008100008958A3A98F42BEA280F822F880F880FC0
:10082000622F681B615070E090E080E0CB01772779
:100830006627322F330F230F622B089526E5280FEA
:10084000622F660F620F70E090E080E0982F872F94
:10085000762F6627322F330F330F231B2150ECCF17
:10086000FC0180819181009711F00C94090C08958E
:10087000FC0101900020E9F73197AF01481B590BAB
:10088000BC0183EF91E00C944101CF93DF930E9470
:100890003804EC018CE191E00E9438048C0F9D1F1C
:1008A000DF91CF9108956F927F928F929F92AF9236
:1008B000BF92CF92DF92EF92FF920F931F93CF934D
:1008C000DF934B015C01C42E8FE191E00E9445044F
:1008D0008AE0682E712CD12CF12CE12CD0E0C0E004
:1008E00010E000E08091920290919302081719079E
:1008F00050F4B501A401CE01800F911F0E94D000D9
:100900000D5F1F4FEFCF0E94E402C701B6010E94A6
:10091000C30310E000E080919202909193020817C7
:10092000190758F440E050E0BA01CE01800F911F42
:100930000E94D0000D5F1F4FEECF2196C330D1052E
:1009400079F681E0681A710849F6DF91CF911F911D
:100950000F91FF90EF90DF90CF90BF90AF909F905E
:100960008F907F906F900895CF92DF92EF92FF92D9
:100970000F931F93CF93DF93C82E85E391E00E94DE
:10098000450410E000E0D12CF12CE12CD0E0C0E0D7
:100990008091920290919302C817D90758F48C2F36
:1009A000800F0E94F603AB01BC01CE010E94D00073
:1009B0002196EECF0E94E402C701B6010E94C30354
:1009C0000F5F1F4F011581E0180701F7DF91CF91ED
:1009D0001F910F91FF90EF90DF90CF9008958F922D
:1009E0009F92AF92BF92CF92DF92EF92FF92CF93FE
:1009F000DF934B015C01C42E86E491E00E94450424
:100A0000D0E0C0E0D12CF12CE12C809192029091A9
:100A10009302C817D90768F4B501A401CE010E945A
:100A2000D0000E94E402C701B6010E94C3032196D0
:100A3000ECCFDF91CF91FF90EF90DF90CF90BF9000
:100A4000AF909F908F9008958F929F92AF92BF9298
:100A5000CF92DF92EF92FF920F931F93CF93DF938A
:100A6000CDB7DEB7A1970FB6F894DEBF0FBECDBFEE
:100A70006C01990FEE08FF08F7FE47C06DE283EFA7
:100A800091E00E9421028C0122273327A9012C1911
:100A90003D094E095F0919A2CE0181967C019AE0B9
:100AA000892E912CA12CB12CCA01B901A501940168
:100AB0000E94450B605DF70162937F0121153105AE
:100AC0004105510589F790E080E0309719F0CF019A
:100AD0000E943804080F191F8CE191E00E9438042D
:100AE000800F911FA1960FB6F894DEBF0FBECDBF49
:100AF000DF91CF911F910F91FF90EF90DF90CF90FA
:100B0000BF90AF909F908F900895A701960119A272
:100B10008E010F5D1F4F8AE0C82ED12CE12CF12CE5
:100B2000CA01B901A70196010E94450B605DF80159
:100B300062938F01211531054105510589F73097E1
:100B400029F0CF010E9438048C01C6CF10E000E0EC
:100B5000C3CFCF93DF93DC0114962D913C91159771
:100B6000232B79F0FB01CD91DC9160817181CE0165
:100B70000E94770D009729F08C1B9D0BDF91CF9180
:100B800008958FEF9FEFFACF0F931F93CF93DF93CB
:100B9000EC0188819981009759F02A813B812617C1
:100BA000370730F081E0DF91CF911F910F910895C9
:100BB0008B016F5F7F4F0E94920C009759F09983D1
:100BC00088831B830A832C813D81232B59F7FC01E9
:100BD0001082E8CF80E0E7CFEF92FF920F931F9350
:100BE000CF93DF93EC017B018A01BA010E94C40517
:100BF00028813981811114C02115310519F0C901ED
:100C00000E94090C198218821D821C821B821A8282
:100C1000CE01DF91CF911F910F91FF90EF9008953A
:100C20001D830C83B701C9010E94610DF1CF1F9292
:100C30000F920FB60F9211242F933F934F935F9310
:100C40006F937F938F939F93AF93BF93EF93FF9394
:100C500083EF91E00E94FF01FF91EF91BF91AF916F
:100C60009F918F917F916F915F914F913F912F91C4
:100C70000F900FBE0F901F9018951F920F920FB6F6
:100C80000F9211242F938F939F93EF93FF93E091F3
:100C90000302F09104028081E0910902F0910A02BE
:100CA00082FD1BC0908180910C028F5F8F73209119
:100CB0000D02821741F0E0910C02F0E0ED50FE4F82
:100CC000958F80930C02FF91EF919F918F912F91BF
:100CD0000F900FBE0F901F9018958081F4CF1F9238
:100CE0000F920FB60F9211242F933F938F939F93E0
:100CF000AF93BF938091EF019091F001A091F1012A
:100D0000B091F2013091E40123E0230F2D3758F523
:100D10000196A11DB11D2093E4018093EF019093F2
:100D2000F001A093F101B093F2018091E50190915F
:100D3000E601A091E701B091E8010196A11DB11D66
:100D40008093E5019093E601A093E701B093E80159
:100D5000BF91AF919F918F913F912F910F900FBEB7
:100D60000F901F90189526E8230F0296A11DB11D24
:100D7000D2CF1092F6011092F50188EE93E0A0E038
:100D8000B0E08093F7019093F801A093F901B0933C
:100D9000FA018EE091E09093F4018093F30185ECE9
:100DA00090E0909300028093FF0184EC90E0909398
:100DB00002028093010280EC90E090930402809301
:100DC000030281EC90E0909306028093050282EC8E
:100DD00090E0909308028093070286EC90E0909355
:100DE0000A028093090210920C0210920D021092D6
:100DF0000E0210920F02109291021092980210921D
:100E00009F021092A0021092A1021092A20281E011
:100E100080939E0280939B0210929C0292E090939A
:100E20009D028093900284EB90E0909395028093D2
:100E300094020E946D0B90939A02809399020097FE
:100E400081F124EBFC0111922A95E9F78CE390E003
:100E500090939302809392028BE090E0909397029C
:100E60008093960280919102882339F061E08BE0B3
:100E70000E948E028BE00E948800EFEAF0E0E4918D
:100E8000F0E0EE0FFF1FE656FF4F8591949190938F
:100E9000A4028093A302E1E9F0E0E491E093A502CB
:100EA000089510929502109294021092930210925B
:100EB0009202D2CFCF93DF93CDB7DEB72C970FB688
:100EC000F894DEBF0FBECDBF789484B5826084BD38
:100ED00084B5816084BD85B5826085BD85B581603E
:100EE00085BD80916E00816080936E0010928100BC
:100EF0008091810082608093810080918100816077
:100F00008093810080918000816080938000809137
:100F1000B10084608093B1008091B00081608093C3
:100F2000B00080917A00846080937A0080917A008A
:100F3000826080937A0080917A00816080937A0049
:100F400080917A00806880937A001092C100E091CD
:100F50000302F091040282E08083E091FF01F091AE
:100F600000021082E0910102F091020280E1808390
:100F700010920B02E0910702F091080286E0808354
:100F8000E0910502F0910602808180618083E0910A
:100F90000502F0910602808188608083E09105025D
:100FA000F0910602808180688083E0910502F091D3
:100FB000060280818F7D80838091960290919702B6
:100FC00097FD07C061E00E948E02809196020E9408
:100FD000880081E0809391020E94E402AA24A394F5
:100FE000B12C7BE0472E512CEAE06E2E712CF9E0FB
:100FF0008F2E912C83EF91E00E94DF0118161906C5
:101000000CF089C12DB63EB618861F821A86198645
:101010001C861B8670E060E0CE0107960E94C40526
:101020002F81388581112DC02115310519F0C90195
:101030000E94090C18861F821C861B861A86198638
:101040000E949101EB84FC8467012FEFC21AD20A3F
:1010500097FD1FC089831A82B601CE0107960E94B0
:10106000C405882369F32F8138858B859C85BE0153
:101070006F5F7F4F820F931F0E94610DDC86CB86CE
:10108000DFCF1C861B866EE171E0C9010E94610DF5
:10109000D7CF8DB79EB78C199D090FB6F8949EBF18
:1010A0000FBE8DBF0DB71EB70F5F1F4FCD2871F05C
:1010B000F801E114F10449F06F817885A701C801B6
:1010C0000E94680DF801EE0DFF1D108289E591E088
:1010D0000E943804C8010E94450468E671E0C80116
:1010E0000E94580D892B29F4B0920301A0920201AD
:1010F0001BC06AE671E0C8010E94580D892B39F4C3
:1011000082E090E090930301809302010DC06CE6B1
:1011100071E0C8010E94580D892BD1F4E3E0F0E0A2
:10112000F0930301E09302018EE991E00E943804FC
:1011300080910201909103010E942405CE0107963F
:101140000E9430040FB6F8943EBE0FBE2DBE52CFA3
:101150006EE671E0C8010E94580D892B19F484E0F5
:1011600090E0D0CF60E771E0C8010E94580D892B54
:1011700019F485E090E0C6CF62E771E0C8010E94F3
:10118000580D892B19F486E090E0BCCF64E771E03C
:10119000C8010E94580D892B19F487E090E0B2CF66
:1011A00066E771E0C8010E94580D892B19F488E0A8
:1011B00090E0A8CF68E771E0C8010E94580D892B24
:1011C00029F49092030180920201AECF6AE771E0A8
:1011D000C8010E94580D892B29F470920301609276
:1011E0000201A2CF1A8219821C821B821E821D82DA
:1011F00046E050E06DE771E0CE0101960E94EC05FB
:10120000BE016F5F7F4FCE0107960E94A9057C014A
:10121000CE0101960E943004F7FC3AC064E871E008
:10122000C8010E94B20A7C0101E010E0EF2859F1E8
:1012300064E871E090E080E00E94B20A7C01013035
:10124000110549F40E94940A9093EA018093E90100
:1012500002E010E0EBCF0230110549F40E94940A3D
:101260009093EC018093EB0103E010E0DFCF0330BB
:101270001105E1F60E94940A9093EE018093ED012E
:1012800004E010E0D3CF50920301409202014CCF12
:101290001A8219821C821B821E821D8242E050E04B
:1012A00066E871E0CE0101960E94EC05BE016F5F19
:1012B0007F4FCE0107960E94A9057C01CE010196C1
:1012C0000E943004F7FC10CF64E871E0C8010E946E
:1012D000B20A8C01EE24E394F12C012B09F424CF03
:1012E00064E871E090E080E00E94B20A8C01EA9428
:1012F000EF2869F489E891E00E943804C8010E944F
:10130000940A90930101809300010E94240542E019
:10131000E42EF12CE2CFE0910201F091030131972C
:10132000EB30F10508F0EEC0E856F64F0C94670B71
:10133000A309A809E8093B0A440A4B0A520A590AB8
:10134000620A690A700A809100010E94B40433C0E5
:101350008090000181EB91E00E94450410E000E0E4
:10136000912CB12CA12CD12CC12CF12CE12C609111
:10137000920270919302E616F70688F4C6010E9465
:101380001D0B862F800F0E94F603AB01BC01C70125
:101390000E94D000EFEFEE1AFE0AD394E8CF0E942D
:1013A000E402C501B4010E94C3030F5F1F4F011582
:1013B00025E01207C1F680E090E0892B09F40ECEFB
:1013C0000E94EB01882309F409CE0E94000006CE9A
:1013D0008090000187EC91E00E944504D12CC12C43
:1013E000912CB12CA12C10E000E0F12CE12C80918B
:1013F000920290919302E816F906A0F4C6018E0DB0
:101400009F1D6FEF70E00E94310B0E94F603AB014D
:10141000BC01C8018E0D9F1D0E94D00083E0E80E24
:10142000F11CE5CF0E94E402C501B4010E94C30390
:10143000F12CE12C8091920290919302E816F9062A
:1014400060F440E050E0BA01C8018E0D9F1D0E947B
:10145000D00093E0E90EF11CEDCF0F5F1F4F03307A
:10146000110519F6EFEFCE1ADE0AC114F1E0DF061E
:1014700009F0B9CFA0CF409100016FE77FE78FE778
:1014800090E00E94530497CF4091000160E070E02B
:101490008FE790E0F6CF4091000160E07FE780E0C9
:1014A00090E0EFCF409100016FE770E080E090E0C6
:1014B000E8CF4091000160E070E08FEF90E00E9483
:1014C000EF0479CF4091000160E07FEF80E090E091
:1014D000F6CF409100016FEF70E080E090E0EFCF39
:1014E0002091E9016091EB0170E090E080E0982F9D
:1014F000872F762F6627822B2091ED01622B40915A
:101500000001DDCF84E121CF8091990290919A0270
:101510000E94090C809196029091970297FD03C05A
:1015200060E00C948E020895FC0188279927E894C6
:1015300021912032E9F3293010F02E30C8F32B32FC
:1015400041F02D3239F4689404C00E94DE0A820F03
:10155000911D219120532A30C0F31EF4909581955E
:101560009F4F089546EA52E00E94B70A0895FA0193
:10157000A191B081009719F41097E1F0CD01DC0141
:10158000CD010D90002011F4C00113C0FB01219189
:10159000222319F02015D9F7F3CFFB012191201553
:1015A00019F41E92119606C02223C1F70D90002057
:1015B000A1F7D001FA01A193B08308957AE0979F33
:1015C000902D879F802D910D112408952F923F9289
:1015D0004F925F926F927F928F929F92AF92BF9243
:1015E000CF92DF92EF92FF920F931F93CF93DF93EF
:1015F000CDB7DEB7CA1BDB0B0FB6F894DEBF0FBE4C
:10160000CDBF09942A88398848885F846E847D8498
:101610008C849B84AA84B984C884DF80EE80FD809A
:101620000C811B81AA81B981CE0FD11D0FB6F89410
:10163000DEBF0FBECDBFED010895AA1BBB1B51E15C
:1016400007C0AA1FBB1FA617B70710F0A61BB70B32
:10165000881F991F5A95A9F780959095BC01CD01D7
:10166000089597FB072E16F4009407D077FD09D054
:101670000E941D0B07FC05D03EF4909581959F4F6D
:101680000895709561957F4F0895A1E21A2EAA1BC7
:10169000BB1BFD010DC0AA1FBB1FEE1FFF1FA21722
:1016A000B307E407F50720F0A21BB30BE40BF50B1F
:1016B000661F771F881F991F1A9469F760957095A8
:1016C000809590959B01AC01BD01CF010895EE0F6F
:1016D000FF1F0590F491E02D09940F931F93CF9372
:1016E000DF938230910510F482E090E0E091AA024D
:1016F000F091AB0230E020E0B0E0A0E0309799F448
:101700002115310509F44AC0281B390B2430310555
:10171000D8F58A819B816115710589F1FB0193835D
:101720008283FE0111C040815181028113814817DB
:101730005907E0F04817590799F4109761F012968D
:101740000C93129713961C933296CF01DF91CF9191
:101750001F910F9108950093AA021093AB02F4CF4A
:101760002115310551F04217530738F0A901DB016B
:101770009A01BD01DF01F801C1CFEF01F9CF9093CC
:10178000AB028093AA02CDCFFE01E20FF31F81933B
:1017900091932250310939832883D7CF2091A80211
:1017A0003091A902232B41F42091060130910701C9
:1017B0003093A9022093A8022091040130910501E1
:1017C0002115310541F42DB73EB7409108015091E4
:1017D0000901241B350BE091A802F091A902E21740
:1017E000F307A0F42E1B3F0B2817390778F0AC0144
:1017F0004E5F5F4F2417350748F04E0F5F1F509321
:10180000A9024093A802819391939FCFF0E0E0E07A
:101810009CCFCF93DF930097E9F0FC0132971382BE
:101820001282A091AA02B091AB02ED0130E020E05B
:101830001097A1F420813181820F931F2091A8027B
:101840003091A9022817390709F061C0F093A90265
:10185000E093A802DF91CF910895EA01CE17DF0748
:10186000E8F54A815B819E0141155105B1F7E90117
:10187000FB83EA8349915991C40FD51FEC17FD07EB
:1018800061F4808191810296840F951FE90199830B
:101890008883828193819B838A83F0E0E0E01296C3
:1018A0008D919C9113970097B9F52D913C911197CB
:1018B000CD010296820F931F2091A8023091A902B8
:1018C0002817390739F6309751F51092AB0210926C
:1018D000AA02B093A902A093A802BCCFD383C2836B
:1018E00040815181840F951FC817D90761F44E5F5D
:1018F0005F4F88819981480F591F518340838A81A6
:101900009B81938382832115310509F0B0CFF09339
:10191000AB02E093AA029ECFFD01DC01C0CF13828F
:101920001282D7CFB0E0A0E0E8E9FCE00C94E80A2E
:101930008C01009751F4CB010E946D0B8C01C80102
:10194000CDB7DEB7E0E10C94040BFC01E60FF71F06
:101950009C0122503109E217F30708F49DC0D90118
:10196000CD91DC911197C617D70798F0C530D105F6
:1019700030F3CE0104978617970708F3C61BD70BE1
:101980002297C193D1936D937C93CF010E94090C50
:10199000D6CF5B01AC1ABD0A4C018C0E9D1EA091E6
:1019A000AA02B091AB02512C412CF12CE12C1097E2
:1019B00031F58091A8029091A9028815990509F046
:1019C0005CC04616570608F058C0809104019091FB
:1019D0000501009741F48DB79EB7409108015091E1
:1019E0000901841B950BE817F90708F055C0F0931F
:1019F000A902E093A802F90171836083A0CF8D91C1
:101A00009C91119712966C90129713967C90139755
:101A1000A815B90559F56C0142E0C40ED11CCA14D1
:101A2000DB0420F1AC014A195B09DA011296159723
:101A300080F06282738251834083D9016D937C93DD
:101A4000E114F10471F0D7011396FC93EE93129711
:101A500076CF22968C0F9D1FF90191838083F3012D
:101A6000EFCFF093AB02E093AA0269CF4816590674
:101A700008F42C017D01D3019ACFCB010E946D0B9C
:101A80007C01009749F0AE01B8010E944F0DC801DA
:101A90000E94090C870153CF10E000E050CFFB01FA
:101AA000DC0102C001900D9241505040D8F70895DA
:101AB000FB01DC018D91019080190110D9F3990B84
:101AC0000895FB01DC0101900D920020E1F70895DB
:101AD000FB01DC014150504048F001900D92002084
:101AE000C9F701C01D9241505040E0F70895FB0135
:101AF00051915523A9F0BF01DC014D9145174111CA
:101B0000E1F759F4CD010190002049F04D914015C5
:101B10004111C9F3FB014111EFCF81E090E0019742
:101B2000089510E0CDE5D0E004C0FE010E94670BEF
:101B30002196CE35D107C9F7F894FFCF0A000100EE
:101B40000000AC02800000000000210241016E0193
:101B50006E02DF017D01D1010D0A005374617274C0
:101B6000696E672074686561746572436861736546
:101B7000005374617274696E67207261696E626F7E
:101B800077005374617274696E6720636F6C6F7253
:101B9000576970650053657269616C20496E707594
:101BA000743A200031003200330034003500360032
:101BB000370038003900313000435553544F4D0041
:101BC00023005754004368616E67696E6720574170
:101BD00049545F54494D453A200053657474696E09
:101BE00067206C65645F6D6F64653A2000537461B3
:101BF0007274696E67207261696E626F7743796390
:101C00006C65005374617274696E672074686561F5
:101C100074657243686173655261696E626F7700C3
:107E0000112484B714BE81FFF0D085E080938100F7
:107E100082E08093C00088E18093C10086E0809377
:107E2000C20080E18093C4008EE0C9D0259A86E02C
:107E300020E33CEF91E0309385002093840096BBD3
:107E4000B09BFECF1D9AA8958150A9F7CC24DD24C4
:107E500088248394B5E0AB2EA1E19A2EF3E0BF2EE7
:107E6000A2D0813461F49FD0082FAFD0023811F036
:107E7000013811F484E001C083E08DD089C08234E0
:107E800011F484E103C0853419F485E0A6D080C0E4
:107E9000853579F488D0E82EFF2485D0082F10E0AE
:107EA000102F00270E291F29000F111F8ED06801E7
:107EB0006FC0863521F484E090D080E0DECF843638
:107EC00009F040C070D06FD0082F6DD080E0C81688
:107ED00080E7D80618F4F601B7BEE895C0E0D1E017
:107EE00062D089930C17E1F7F0E0CF16F0E7DF06D8
:107EF00018F0F601B7BEE89568D007B600FCFDCFD4
:107F0000A601A0E0B1E02C9130E011968C91119780
:107F100090E0982F8827822B932B1296FA010C0160
:107F200087BEE89511244E5F5F4FF1E0A038BF0790
:107F300051F7F601A7BEE89507B600FCFDCF97BE46
:107F4000E89526C08437B1F42ED02DD0F82E2BD052
:107F50003CD0F601EF2C8F010F5F1F4F84911BD097
:107F6000EA94F801C1F70894C11CD11CFA94CF0C13
:107F7000D11C0EC0853739F428D08EE10CD085E9AC
:107F80000AD08FE07ACF813511F488E018D01DD067
:107F900080E101D065CF982F8091C00085FFFCCF94
:107FA0009093C60008958091C00087FFFCCF809118
:107FB000C00084FD01C0A8958091C6000895E0E648
:107FC000F0E098E1908380830895EDDF803219F02E
:107FD00088E0F5DFFFCF84E1DECF1F93182FE3DFCA
:107FE0001150E9F7F2DF1F91089580E0E8DFEE27F6
:047FF000FF270994CA
:027FFE00040479
:00000001FF
